{
  "address": "0x835A09214B56049Db8cB14A9264E99a5ef4F6f69",
  "abi": [
    {
      "inputs": [
        {
          "internalType": "address",
          "name": "_airnodeRrp",
          "type": "address"
        },
        {
          "internalType": "uint256",
          "name": "_epochLength",
          "type": "uint256"
        },
        {
          "internalType": "address",
          "name": "_beat_addr",
          "type": "address"
        }
      ],
      "stateMutability": "nonpayable",
      "type": "constructor"
    },
    {
      "inputs": [
        {
          "internalType": "address",
          "name": "owner",
          "type": "address"
        }
      ],
      "name": "OwnableInvalidOwner",
      "type": "error"
    },
    {
      "inputs": [
        {
          "internalType": "address",
          "name": "account",
          "type": "address"
        }
      ],
      "name": "OwnableUnauthorizedAccount",
      "type": "error"
    },
    {
      "anonymous": false,
      "inputs": [
        {
          "indexed": true,
          "internalType": "address",
          "name": "previousOwner",
          "type": "address"
        },
        {
          "indexed": true,
          "internalType": "address",
          "name": "newOwner",
          "type": "address"
        }
      ],
      "name": "OwnershipTransferred",
      "type": "event"
    },
    {
      "anonymous": false,
      "inputs": [
        {
          "indexed": true,
          "internalType": "bytes32",
          "name": "requestId",
          "type": "bytes32"
        },
        {
          "indexed": false,
          "internalType": "uint256",
          "name": "response",
          "type": "uint256"
        }
      ],
      "name": "ReceivedUint256",
      "type": "event"
    },
    {
      "anonymous": false,
      "inputs": [
        {
          "indexed": true,
          "internalType": "bytes32",
          "name": "requestId",
          "type": "bytes32"
        },
        {
          "indexed": false,
          "internalType": "uint256[]",
          "name": "response",
          "type": "uint256[]"
        }
      ],
      "name": "ReceivedUint256Array",
      "type": "event"
    },
    {
      "anonymous": false,
      "inputs": [
        {
          "indexed": true,
          "internalType": "bytes32",
          "name": "requestId",
          "type": "bytes32"
        }
      ],
      "name": "RequestedUint256",
      "type": "event"
    },
    {
      "anonymous": false,
      "inputs": [
        {
          "indexed": true,
          "internalType": "bytes32",
          "name": "requestId",
          "type": "bytes32"
        },
        {
          "indexed": false,
          "internalType": "uint256",
          "name": "size",
          "type": "uint256"
        }
      ],
      "name": "RequestedUint256Array",
      "type": "event"
    },
    {
      "inputs": [],
      "name": "_pendingTotalStake",
      "outputs": [
        {
          "internalType": "uint256",
          "name": "",
          "type": "uint256"
        }
      ],
      "stateMutability": "view",
      "type": "function"
    },
    {
      "inputs": [],
      "name": "_totalMint",
      "outputs": [
        {
          "internalType": "uint256",
          "name": "",
          "type": "uint256"
        }
      ],
      "stateMutability": "view",
      "type": "function"
    },
    {
      "inputs": [],
      "name": "_totalMintForHouse",
      "outputs": [
        {
          "internalType": "uint256",
          "name": "",
          "type": "uint256"
        }
      ],
      "stateMutability": "view",
      "type": "function"
    },
    {
      "inputs": [],
      "name": "_totalStake",
      "outputs": [
        {
          "internalType": "uint256",
          "name": "",
          "type": "uint256"
        }
      ],
      "stateMutability": "view",
      "type": "function"
    },
    {
      "inputs": [
        {
          "internalType": "uint256",
          "name": "memId",
          "type": "uint256"
        },
        {
          "internalType": "uint256",
          "name": "famId",
          "type": "uint256"
        },
        {
          "internalType": "uint256",
          "name": "refId",
          "type": "uint256"
        }
      ],
      "name": "addStake",
      "outputs": [],
      "stateMutability": "payable",
      "type": "function"
    },
    {
      "inputs": [],
      "name": "airnode",
      "outputs": [
        {
          "internalType": "address",
          "name": "",
          "type": "address"
        }
      ],
      "stateMutability": "view",
      "type": "function"
    },
    {
      "inputs": [],
      "name": "airnodeRrp",
      "outputs": [
        {
          "internalType": "contract IAirnodeRrpV0",
          "name": "",
          "type": "address"
        }
      ],
      "stateMutability": "view",
      "type": "function"
    },
    {
      "inputs": [],
      "name": "beat_addr",
      "outputs": [
        {
          "internalType": "address",
          "name": "",
          "type": "address"
        }
      ],
      "stateMutability": "view",
      "type": "function"
    },
    {
      "inputs": [
        {
          "internalType": "uint256",
          "name": "famId",
          "type": "uint256"
        }
      ],
      "name": "claimFamilyWinnings",
      "outputs": [],
      "stateMutability": "nonpayable",
      "type": "function"
    },
    {
      "inputs": [
        {
          "internalType": "uint256",
          "name": "memId",
          "type": "uint256"
        }
      ],
      "name": "claimMemberWinnings",
      "outputs": [],
      "stateMutability": "nonpayable",
      "type": "function"
    },
    {
      "inputs": [
        {
          "internalType": "bytes32",
          "name": "requestId",
          "type": "bytes32"
        },
        {
          "internalType": "bytes",
          "name": "data",
          "type": "bytes"
        }
      ],
      "name": "completeComputeWin",
      "outputs": [],
      "stateMutability": "nonpayable",
      "type": "function"
    },
    {
      "inputs": [],
      "name": "computeWin",
      "outputs": [],
      "stateMutability": "nonpayable",
      "type": "function"
    },
    {
      "inputs": [],
      "name": "endpointIdUint256Array",
      "outputs": [
        {
          "internalType": "bytes32",
          "name": "",
          "type": "bytes32"
        }
      ],
      "stateMutability": "view",
      "type": "function"
    },
    {
      "inputs": [],
      "name": "epochLength",
      "outputs": [
        {
          "internalType": "uint256",
          "name": "",
          "type": "uint256"
        }
      ],
      "stateMutability": "view",
      "type": "function"
    },
    {
      "inputs": [
        {
          "internalType": "bytes32",
          "name": "",
          "type": "bytes32"
        }
      ],
      "name": "expectingRequestWithIdToBeFulfilled",
      "outputs": [
        {
          "internalType": "bool",
          "name": "",
          "type": "bool"
        }
      ],
      "stateMutability": "view",
      "type": "function"
    },
    {
      "inputs": [],
      "name": "famMintCost",
      "outputs": [
        {
          "internalType": "uint256",
          "name": "cost",
          "type": "uint256"
        }
      ],
      "stateMutability": "view",
      "type": "function"
    },
    {
      "inputs": [],
      "name": "famSwitchCost",
      "outputs": [
        {
          "internalType": "uint256",
          "name": "",
          "type": "uint256"
        }
      ],
      "stateMutability": "view",
      "type": "function"
    },
    {
      "inputs": [],
      "name": "fam_addr",
      "outputs": [
        {
          "internalType": "address",
          "name": "",
          "type": "address"
        }
      ],
      "stateMutability": "view",
      "type": "function"
    },
    {
      "inputs": [
        {
          "internalType": "uint256",
          "name": "famId",
          "type": "uint256"
        }
      ],
      "name": "familyProps",
      "outputs": [
        {
          "components": [
            {
              "internalType": "uint256",
              "name": "id",
              "type": "uint256"
            },
            {
              "internalType": "uint256",
              "name": "totalStakeWeight",
              "type": "uint256"
            },
            {
              "internalType": "uint256",
              "name": "ownerShare",
              "type": "uint256"
            },
            {
              "internalType": "uint256",
              "name": "membersShare",
              "type": "uint256"
            },
            {
              "internalType": "uint256",
              "name": "rps",
              "type": "uint256"
            }
          ],
          "internalType": "struct Beaters.FamilyProps",
          "name": "",
          "type": "tuple"
        }
      ],
      "stateMutability": "view",
      "type": "function"
    },
    {
      "inputs": [
        {
          "internalType": "address",
          "name": "user",
          "type": "address"
        }
      ],
      "name": "getRefId",
      "outputs": [
        {
          "internalType": "uint256",
          "name": "",
          "type": "uint256"
        }
      ],
      "stateMutability": "view",
      "type": "function"
    },
    {
      "inputs": [
        {
          "internalType": "address",
          "name": "user",
          "type": "address"
        }
      ],
      "name": "getUserId",
      "outputs": [
        {
          "internalType": "uint256",
          "name": "userId",
          "type": "uint256"
        }
      ],
      "stateMutability": "view",
      "type": "function"
    },
    {
      "inputs": [],
      "name": "mem_addr",
      "outputs": [
        {
          "internalType": "address",
          "name": "",
          "type": "address"
        }
      ],
      "stateMutability": "view",
      "type": "function"
    },
    {
      "inputs": [
        {
          "internalType": "uint256",
          "name": "memId",
          "type": "uint256"
        }
      ],
      "name": "memberProps",
      "outputs": [
        {
          "components": [
            {
              "internalType": "uint256",
              "name": "totalStake",
              "type": "uint256"
            },
            {
              "internalType": "uint256",
              "name": "activePeriods",
              "type": "uint256"
            },
            {
              "internalType": "uint256",
              "name": "lastActivePeriod",
              "type": "uint256"
            },
            {
              "internalType": "uint256",
              "name": "stakeWeight",
              "type": "uint256"
            },
            {
              "internalType": "uint256",
              "name": "famId",
              "type": "uint256"
            },
            {
              "internalType": "uint256",
              "name": "rps",
              "type": "uint256"
            }
          ],
          "internalType": "struct Beaters.MemberProps",
          "name": "",
          "type": "tuple"
        }
      ],
      "stateMutability": "view",
      "type": "function"
    },
    {
      "inputs": [],
      "name": "minStake",
      "outputs": [
        {
          "internalType": "uint256",
          "name": "",
          "type": "uint256"
        }
      ],
      "stateMutability": "view",
      "type": "function"
    },
    {
      "inputs": [],
      "name": "mintFamily",
      "outputs": [],
      "stateMutability": "nonpayable",
      "type": "function"
    },
    {
      "inputs": [],
      "name": "mintLeft",
      "outputs": [
        {
          "internalType": "uint256",
          "name": "",
          "type": "uint256"
        }
      ],
      "stateMutability": "view",
      "type": "function"
    },
    {
      "inputs": [],
      "name": "owner",
      "outputs": [
        {
          "internalType": "address",
          "name": "",
          "type": "address"
        }
      ],
      "stateMutability": "view",
      "type": "function"
    },
    {
      "inputs": [
        {
          "internalType": "address",
          "name": "user",
          "type": "address"
        }
      ],
      "name": "referredBy",
      "outputs": [
        {
          "internalType": "uint256",
          "name": "",
          "type": "uint256"
        }
      ],
      "stateMutability": "view",
      "type": "function"
    },
    {
      "inputs": [
        {
          "internalType": "address",
          "name": "user",
          "type": "address"
        }
      ],
      "name": "referrerAddress",
      "outputs": [
        {
          "internalType": "address",
          "name": "refAddress",
          "type": "address"
        }
      ],
      "stateMutability": "view",
      "type": "function"
    },
    {
      "inputs": [],
      "name": "renounceOwnership",
      "outputs": [],
      "stateMutability": "nonpayable",
      "type": "function"
    },
    {
      "inputs": [
        {
          "internalType": "address",
          "name": "_airnode",
          "type": "address"
        },
        {
          "internalType": "bytes32",
          "name": "_endpointIdUint256Array",
          "type": "bytes32"
        },
        {
          "internalType": "address",
          "name": "_sponsorWallet",
          "type": "address"
        }
      ],
      "name": "setRequestParameters",
      "outputs": [],
      "stateMutability": "nonpayable",
      "type": "function"
    },
    {
      "inputs": [],
      "name": "sponsorWallet",
      "outputs": [
        {
          "internalType": "address",
          "name": "",
          "type": "address"
        }
      ],
      "stateMutability": "view",
      "type": "function"
    },
    {
      "inputs": [],
      "name": "stakeLeft",
      "outputs": [
        {
          "internalType": "uint256",
          "name": "",
          "type": "uint256"
        }
      ],
      "stateMutability": "view",
      "type": "function"
    },
    {
      "inputs": [
        {
          "internalType": "address",
          "name": "newOwner",
          "type": "address"
        }
      ],
      "name": "transferOwnership",
      "outputs": [],
      "stateMutability": "nonpayable",
      "type": "function"
    },
    {
      "inputs": [
        {
          "internalType": "uint256",
          "name": "beatAmt",
          "type": "uint256"
        }
      ],
      "name": "widthdrawStake",
      "outputs": [],
      "stateMutability": "nonpayable",
      "type": "function"
    }
  ],
  "transactionHash": "0x3a4359a6b8c33f87e164b0c2a24e2e05a629b568b384ffc75a821a5e91cfdda7",
  "args": [
    "0xa0AD79D995DdeeB18a14eAef56A549A04e3Aa1Bd",
    6,
    "0x6D4a2BeD07865D85Fd010102b8DB6f6fDdAaBB22"
  ],
  "numDeployments": 2,
  "solcInputHash": "a2e3f092f5ac72ba5bafaa8ece463dc8",
  "bytecode": "0x60a060405260006005556000600755655af3107a4000600b556000600f556000601055600060115560006012553480156200003957600080fd5b5060405162005749380380620057498339810160408190526200005c9162000901565b6001600160a01b0383166080819052604051632b77c09f60e21b8152306004820152600160248201528491339183919063addf027c90604401600060405180830381600087803b158015620000b057600080fd5b505af1158015620000c5573d6000803e3d6000fd5b5050506001600160a01b0383169150620000fc905057604051631e4fbdf760e01b8152600060048201526024015b60405180910390fd5b620001078162000211565b505042600655601382905560405160009030906200012590620008c8565b6001600160a01b039091168152602001604051809103906000f08015801562000152573d6000803e3d6000fd5b5090506000306040516200016690620008d6565b6001600160a01b039091168152602001604051809103906000f08015801562000193573d6000803e3d6000fd5b50601480546001600160a01b03199081166001600160a01b0386811691909117909255601580548216848416179055601680549091168683161790556000805492935091169050620001e781600062000261565b6000620001f482620002e3565b905062000204826000836200036e565b5050505050505062000b2c565b600080546001600160a01b038381166001600160a01b0319831681178455604051919092169283917f8be0079c531659141344cd1fd0a4f28419497f9722a3daafe3b4186f6b6457e09190a35050565b6001600160a01b03821660009081526008602052604081205490819003620002de57600560008154620002949062000958565b91829055506001600160a01b03841660008181526008602090815260408083208590558483526009825280832080546001600160a01b031916909417909355600a90522083905590505b505050565b6014546040516340d097c360e01b81526001600160a01b03838116600483015260009216906340d097c3906024016020604051808303816000875af115801562000331573d6000803e3d6000fd5b505050506040513d601f19601f8201168201806040525081019062000357919062000974565b6000818152600d6020526040902081905592915050565b6015546040516340d097c360e01b81526001600160a01b03858116600483015260009216906340d097c3906024016020604051808303816000875af1158015620003bc573d6000803e3d6000fd5b505050506040513d601f19601f82011682018060405250810190620003e2919062000974565b9050620003f281838587620003f8565b50505050565b6014546040805163f84ddf0b60e01b815290516000926001600160a01b03169163f84ddf0b9160048083019260209291908290030181865afa15801562000443573d6000803e3d6000fd5b505050506040513d601f19601f8201168201806040525081019062000469919062000974565b905080841115620004b15760405162461bcd60e51b8152602060048201526011602482015270125b9d985b1a590819985b5a5b1e481259607a1b6044820152606401620000f3565b6000858152600c602090815260408083206004810154808552600d9093529220901562000589578060040154826005015414620005455760405162461bcd60e51b815260206004820152602b60248201527f436c61696d2070726576696f75732077696e73206265666f726520616464696e60448201526a67206e6577207374616b6560a81b6064820152608401620000f3565b8154620005895760405162461bcd60e51b8152602060048201526011602482015270125b9d985b1a59081b595b58995c881259607a1b6044820152606401620000f3565b8160030154816001016000828254620005a391906200098e565b9091555050815485908390600090620005be908490620009aa565b90915550620005ce905062000709565b600283015560018083018054600090620005ea908490620009aa565b909155505060018201548254620006029190620009c0565b6003830155600086158015906200061d575082600401548714155b15620006c95760006200062f62000728565b60165460405163079cc67960e41b81526001600160a01b038981166004830152602482018490529293509116906379cc679090604401600060405180830381600087803b1580156200068057600080fd5b505af115801562000695573d6000803e3d6000fd5b505050508060116000828254620006ad91906200098e565b9091555050506000878152600d602052604090209050620006cc565b50805b805460048085019190915581015460058401556003830154600182018054600090620006fa908490620009aa565b90915550505050505050505050565b6000601e6200071762000750565b620007239190620009f0565b905090565b60006103e862000737620007d9565b620007439190620009f0565b62000723906005620009c0565b60004215620007ad57600060065411620007ad5760405162461bcd60e51b815260206004820152601960248201527f496e76616c69642067656e657369732074696d657374616d70000000000000006044820152606401620000f3565b601354620007bd90603c620009c0565b620007ca90603c620009c0565b6006546200071790426200098e565b600080620007e662000750565b620007f3906001620009aa565b9050620008008162000862565b6200081490670de0b6b3a7640000620009aa565b91506200082360028262000b04565b6200082f9083620009c0565b91506200084081620f4240620009c0565b6200084c9083620009f0565b91506200085c61040f83620009c0565b91505090565b68a2a15d09519be00000610d896200087b8184620009f0565b9190911c906200088c818462000b15565b92506002816200089d8585620009c0565b620008a99190620009f0565b620008b59190620009f0565b620008c190836200098e565b9392505050565b6114a78062002ebb83390190565b6113e7806200436283390190565b80516001600160a01b0381168114620008fc57600080fd5b919050565b6000806000606084860312156200091757600080fd5b6200092284620008e4565b9250602084015191506200093960408501620008e4565b90509250925092565b634e487b7160e01b600052601160045260246000fd5b6000600182016200096d576200096d62000942565b5060010190565b6000602082840312156200098757600080fd5b5051919050565b81810381811115620009a457620009a462000942565b92915050565b80820180821115620009a457620009a462000942565b8082028115828204841417620009a457620009a462000942565b634e487b7160e01b600052601260045260246000fd5b60008262000a025762000a02620009da565b500490565b600181815b8085111562000a4857816000190482111562000a2c5762000a2c62000942565b8085161562000a3a57918102915b93841c939080029062000a0c565b509250929050565b60008262000a6157506001620009a4565b8162000a7057506000620009a4565b816001811462000a89576002811462000a945762000ab4565b6001915050620009a4565b60ff84111562000aa85762000aa862000942565b50506001821b620009a4565b5060208310610133831016604e8410600b841016171562000ad9575081810a620009a4565b62000ae5838362000a07565b806000190482111562000afc5762000afc62000942565b029392505050565b6000620008c160ff84168362000a50565b60008262000b275762000b27620009da565b500690565b60805161236562000b56600039600081816103960152818161074f0152611d4d01526123656000f3fe6080604052600436106102045760003560e01c80638da5cb5b11610118578063bf90fb4e116100a0578063cd251bef1161006f578063cd251bef146105e6578063d22adbd914610606578063e4812c5f1461061b578063f2fde38b14610630578063fd44f1e41461065057600080fd5b8063bf90fb4e14610566578063c724397d14610586578063cc44e064146105a6578063cc723f23146105c657600080fd5b8063a19954af116100e7578063a19954af146104db578063a36ff4d8146104f1578063a90f8e9a14610511578063b23e7a7214610531578063b99a33dc1461055157600080fd5b80638da5cb5b1461047b57806392de0415146104995780639c2553be146104af5780639dd991b7146104c557600080fd5b806357d775f81161019b57806372922c6f1161016a57806372922c6f146103d05780637bdf2525146103e55780637decac4314610405578063851244f7146104255780638ab377971461046557600080fd5b806357d775f8146103395780636eb435431461034f578063715018a61461036f57806371bab6661461038457600080fd5b806333d54dc1116101d757806333d54dc11461028f578063375b3c0a146102fb578063475d28071461031157806350a5f1081461032657600080fd5b8063022a2777146102095780632b956ff71461022d57806331d866751461024d578063331b8db71461026f575b600080fd5b34801561021557600080fd5b506011545b6040519081526020015b60405180910390f35b34801561023957600080fd5b5061021a610248366004611e53565b6106b2565b34801561025957600080fd5b5061026d610268366004611e70565b610711565b005b34801561027b57600080fd5b5061026d61028a366004611e89565b610744565b34801561029b57600080fd5b506102af6102aa366004611e70565b610838565b6040516102249190600060c082019050825182526020830151602083015260408301516040830152606083015160608301526080830151608083015260a083015160a083015292915050565b34801561030757600080fd5b5061021a600b5481565b34801561031d57600080fd5b5061021a6108ca565b61026d610334366004611f05565b6108e1565b34801561034557600080fd5b5061021a60135481565b34801561035b57600080fd5b5061021a61036a366004611e53565b610983565b34801561037b57600080fd5b5061026d610994565b34801561039057600080fd5b506103b87f000000000000000000000000000000000000000000000000000000000000000081565b6040516001600160a01b039091168152602001610224565b3480156103dc57600080fd5b5061026d6109a8565b3480156103f157600080fd5b5061026d610400366004611f31565b610aa2565b34801561041157600080fd5b506014546103b8906001600160a01b031681565b34801561043157600080fd5b50610455610440366004611e70565b60046020526000908152604090205460ff1681565b6040519015158152602001610224565b34801561047157600080fd5b5061021a60125481565b34801561048757600080fd5b506000546001600160a01b03166103b8565b3480156104a557600080fd5b5061021a60105481565b3480156104bb57600080fd5b5061021a600f5481565b3480156104d157600080fd5b5061021a60115481565b3480156104e757600080fd5b5061021a60025481565b3480156104fd57600080fd5b506001546103b8906001600160a01b031681565b34801561051d57600080fd5b5061021a61052c366004611e53565b610ade565b34801561053d57600080fd5b5061026d61054c366004611e70565b610b00565b34801561055d57600080fd5b5061021a610cf5565b34801561057257600080fd5b506003546103b8906001600160a01b031681565b34801561059257600080fd5b506015546103b8906001600160a01b031681565b3480156105b257600080fd5b506103b86105c1366004611e53565b610d6c565b3480156105d257600080fd5b506016546103b8906001600160a01b031681565b3480156105f257600080fd5b5061026d610601366004611e70565b610dac565b34801561061257600080fd5b5061021a610e5e565b34801561062757600080fd5b5061026d610e80565b34801561063c57600080fd5b5061026d61064b366004611e53565b61102c565b34801561065c57600080fd5b5061067061066b366004611e70565b61106a565b6040516102249190600060a082019050825182526020830151602083015260408301516040830152606083015160608301526080830151608083015292915050565b6001600160a01b0381166000908152600860205260409020548061070c5760405162461bcd60e51b815260206004820152600c60248201526b2737ba10309036b2b6b132b960a11b60448201526064015b60405180910390fd5b919050565b3361071c82826110eb565b6000828152600d602052604081206002810180549290559061073e83826111b4565b50505050565b336001600160a01b037f000000000000000000000000000000000000000000000000000000000000000016146107b55760405162461bcd60e51b8152602060048201526016602482015275043616c6c6572206e6f74204169726e6f6465205252560541b6044820152606401610703565b60008381526004602052604090205460ff1661080a5760405162461bcd60e51b81526020600482015260146024820152732932b8bab2b9ba1024a2103737ba1035b737bbb760611b6044820152606401610703565b6000838152600460205260408120805460ff1916905561082c82840184611f89565b905061073e818561137a565b6108716040518060c001604052806000815260200160008152602001600081526020016000815260200160008152602001600081525090565b506000908152600c6020908152604091829020825160c08101845281548152600182015492810192909252600281015492820192909252600382015460608201526004820154608082015260059091015460a082015290565b6000601054600f546108dc919061205d565b905090565b600b543490339082101561092d5760405162461bcd60e51b81526020600482015260136024820152720a6cadce840cae8d040dcdee840cadcdeeaced606b1b6044820152606401610703565b610937818461165b565b8460000361094f5761094a8183866116d9565b610965565b6109598582611758565b6109658585848461181c565b8160106000828254610977919061205d565b90915550505050505050565b600061098e826106b2565b92915050565b61099c611b0e565b6109a66000611b3b565b565b3360008181526008602052604090205480610a0f5760405162461bcd60e51b815260206004820152602160248201527f4d75737420616464207374616b65206265666f72652066616d696c79206d696e6044820152601d60fa1b6064820152608401610703565b6000610a19610cf5565b60165460405163079cc67960e41b81526001600160a01b038681166004830152602482018490529293509116906379cc679090604401600060405180830381600087803b158015610a6957600080fd5b505af1158015610a7d573d6000803e3d6000fd5b505050508060116000828254610a939190612070565b9091555061073e905083611b8b565b610aaa611b0e565b600180546001600160a01b039485166001600160a01b03199182161790915560029290925560038054919093169116179055565b600080610aea836106b2565b6000908152600a60205260409020549392505050565b60003360165460405163079cc67960e41b81526001600160a01b038084166004830152602482018690529293509116906379cc679090604401600060405180830381600087803b158015610b5357600080fd5b505af1158015610b67573d6000803e3d6000fd5b50505050600060115411610bb05760405162461bcd60e51b815260206004820152601060248201526f139bc81b5a5b9d081c9958dbdc99195960821b6044820152606401610703565b6000601154600f5484610bc39190612083565b610bcd91906120b0565b90506064610bdc82605a612083565b610be691906120b0565b905060008111610c2f5760405162461bcd60e51b81526020600482015260146024820152734e6f7468696e6720746f2077696474686472617760601b6044820152606401610703565b8260116000828254610c419190612070565b9250508190555080600f6000828254610c5a9190612070565b90915550506040516000906001600160a01b0384169083908381818185875af1925050503d8060008114610caa576040519150601f19603f3d011682016040523d82523d6000602084013e610caf565b606091505b505090508061073e5760405162461bcd60e51b81526020600482015260126024820152713ab730b13632903a37903830bc903ab9b2b960711b6044820152606401610703565b600080610d00611c13565b610d0b90600161205d565b9050610d1681611c9d565b610d2890670de0b6b3a764000061205d565b9150610d356002826121a8565b610d3f9083612083565b9150610d4e81620f4240612083565b610d5890836120b0565b9150610d6661040f83612083565b91505090565b600080610d7883610ade565b905080600003610d8b5760009150610da6565b6000818152600960205260409020546001600160a01b031691505b50919050565b33610db78282611758565b6000828152600c602090815260408083206004808201548552600d9093529220908101546005830154101561073e57600082600501548260040154610dfc9190612070565b90506000670de0b6b3a7640000846003015483610e199190612083565b610e2391906120b0565b90508260040154846005018190555080836003016000828254610e469190612070565b90915550610e56905085826111b4565b505050505050565b60006103e8610e6b610cf5565b610e7591906120b0565b6108dc906005612083565b6000610e8a611c13565b600754909150610e9b82600161205d565b11610edd5760405162461bcd60e51b815260206004820152601260248201527145706f6368207374696c6c2061637469766560701b6044820152606401610703565b60005b60078054610efc916000610ef3836121b7565b91905055611c9d565b610f06908261205d565b90508160075410610ee0578060116000828254610f23919061205d565b9091555050601054600f8054600090610f3d90849061205d565b9091555050600060108190556014546040805163798ead0160e01b81529051600a926001600160a01b03169163798ead019160048083019260209291908290030181865afa158015610f93573d6000803e3d6000fd5b505050506040513d601f19601f82011682018060405250810190610fb791906121d0565b610fc191906120b0565b9050610fce60018261205d565b90506000610fe38263331b8db760e01b611cf7565b905060006064610ff485604b612083565b610ffe91906120b0565b6000838152600e60205260409020819055905061101b8185612070565b60126000828254610977919061205d565b611034611b0e565b6001600160a01b03811661105e57604051631e4fbdf760e01b815260006004820152602401610703565b61106781611b3b565b50565b61109c6040518060a0016040528060008152602001600081526020016000815260200160008152602001600081525090565b506000908152600d6020908152604091829020825160a0810184528154815260018201549281019290925260028101549282019290925260038201546060820152600490910154608082015290565b6014546040516331a9108f60e11b8152600481018490526000916001600160a01b031690636352211e90602401602060405180830381865afa158015611135573d6000803e3d6000fd5b505050506040513d601f19601f8201168201806040525081019061115991906121e9565b9050816001600160a01b0316816001600160a01b0316146111af5760405162461bcd60e51b815260206004820152601060248201526f11985b5a5b1e481b9bdd081bdddb995960821b6044820152606401610703565b505050565b60006111bf83610ade565b9050600060646111d0846005612083565b6111da91906120b0565b90506111e68184612070565b925080156112f6578115611280576016546000838152600960205260409081902054905163a9059cbb60e01b81526001600160a01b0391821660048201526024810184905291169063a9059cbb906044016020604051808303816000875af1158015611256573d6000803e3d6000fd5b505050506040513d601f19601f8201168201806040525081019061127a9190612206565b506112f6565b601654604051630852cd8d60e31b8152600481018390526001600160a01b03909116906342966c6890602401600060405180830381600087803b1580156112c657600080fd5b505af11580156112da573d6000803e3d6000fd5b5050505080601160008282546112f09190612070565b90915550505b821561073e5760165460405163a9059cbb60e01b81526001600160a01b038681166004830152602482018690529091169063a9059cbb906044016020604051808303816000875af115801561134f573d6000803e3d6000fd5b505050506040513d601f19601f820116820180604052508101906113739190612206565b5050505050565b6000818152600e602052604081208054919055806113d15760405162461bcd60e51b81526020600482015260146024820152734e6f2076616c756520746f20646973627572736560601b6044820152606401610703565b82516113dd81836120b0565b91506000805b8281101561159f57600080601460009054906101000a90046001600160a01b03166001600160a01b031663f84ddf0b6040518163ffffffff1660e01b8152600401602060405180830381865afa158015611441573d6000803e3d6000fd5b505050506040513d601f19601f8201168201806040525081019061146591906121d0565b61146f9190612070565b61147a90600161205d565b87838151811061148c5761148c612228565b602002602001015161149e919061223e565b6114a990600061205d565b6000818152600d6020526040812091925060646114c788601e612083565b6114d191906120b0565b9050808260020160008282546114e7919061205d565b90915550600090506114f98289612070565b905060008111801561150f575060008360010154115b1561157557600183015460009061152e670de0b6b3a764000084612083565b61153891906120b0565b90508084600401600082825461154e919061205d565b9250508190555081846003016000828254611569919061205d565b90915550611588915050565b801561158857611585818761205d565b95505b505050508080611597906121b7565b9150506113e3565b50801561161c5780601160008282546115b89190612070565b9091555050601654604051630852cd8d60e31b8152600481018390526001600160a01b03909116906342966c6890602401600060405180830381600087803b15801561160357600080fd5b505af1158015611617573d6000803e3d6000fd5b505050505b837f47b5f552f55573ad9b766ef18360830d3e90ecdfbef4c7bea49379a0ce64913c8660405161164c9190612252565b60405180910390a25050505050565b6001600160a01b038216600090815260086020526040812054908190036111af5760056000815461168b906121b7565b91829055506001600160a01b03841660008181526008602090815260408083208590558483526009825280832080546001600160a01b031916909417909355600a9052208390559050505050565b6015546040516340d097c360e01b81526001600160a01b03858116600483015260009216906340d097c3906024016020604051808303816000875af1158015611726573d6000803e3d6000fd5b505050506040513d601f19601f8201168201806040525081019061174a91906121d0565b905061073e8183858761181c565b6015546040516331a9108f60e11b8152600481018490526000916001600160a01b031690636352211e90602401602060405180830381865afa1580156117a2573d6000803e3d6000fd5b505050506040513d601f19601f820116820180604052508101906117c691906121e9565b9050816001600160a01b0316816001600160a01b0316146111af5760405162461bcd60e51b815260206004820152601060248201526f13595b58995c881b9bdd081bdddb995960821b6044820152606401610703565b6014546040805163f84ddf0b60e01b815290516000926001600160a01b03169163f84ddf0b9160048083019260209291908290030181865afa158015611866573d6000803e3d6000fd5b505050506040513d601f19601f8201168201806040525081019061188a91906121d0565b9050808411156118d05760405162461bcd60e51b8152602060048201526011602482015270125b9d985b1a590819985b5a5b1e481259607a1b6044820152606401610703565b6000858152600c602090815260408083206004810154808552600d909352922090156119a35780600401548260050154146119615760405162461bcd60e51b815260206004820152602b60248201527f436c61696d2070726576696f75732077696e73206265666f726520616464696e60448201526a67206e6577207374616b6560a81b6064820152608401610703565b81546119a35760405162461bcd60e51b8152602060048201526011602482015270125b9d985b1a59081b595b58995c881259607a1b6044820152606401610703565b81600301548160010160008282546119bb9190612070565b90915550508154859083906000906119d490849061205d565b909155506119e29050611e32565b6002830155600180830180546000906119fc90849061205d565b909155505060018201548254611a129190612083565b600383015560008615801590611a2c575082600401548714155b15611ad0576000611a3b610e5e565b60165460405163079cc67960e41b81526001600160a01b038981166004830152602482018490529293509116906379cc679090604401600060405180830381600087803b158015611a8b57600080fd5b505af1158015611a9f573d6000803e3d6000fd5b505050508060116000828254611ab59190612070565b9091555050506000878152600d602052604090209050611ad3565b50805b805460048085019190915581015460058401556003830154600182018054600090611aff90849061205d565b90915550505050505050505050565b6000546001600160a01b031633146109a65760405163118cdaa760e01b8152336004820152602401610703565b600080546001600160a01b038381166001600160a01b0319831681178455604051919092169283917f8be0079c531659141344cd1fd0a4f28419497f9722a3daafe3b4186f6b6457e09190a35050565b6014546040516340d097c360e01b81526001600160a01b03838116600483015260009216906340d097c3906024016020604051808303816000875af1158015611bd8573d6000803e3d6000fd5b505050506040513d601f19601f82011682018060405250810190611bfc91906121d0565b6000818152600d6020526040902081905592915050565b60004215611c6d57600060065411611c6d5760405162461bcd60e51b815260206004820152601960248201527f496e76616c69642067656e657369732074696d657374616d70000000000000006044820152606401610703565b601354611c7b90603c612083565b611c8690603c612083565b600654611c939042612070565b6108dc91906120b0565b68a2a15d09519be00000610d89611cb481846120b0565b9190911c90611cc3818461223e565b9250600281611cd28585612083565b611cdc91906120b0565b611ce691906120b0565b611cf09083612070565b9392505050565b6001546002546003546040805161317560f01b60208201526373697a6560e01b818301526060808201889052825180830390910181526080820192839052636e6be03f60e01b9092526000946001600160a01b037f0000000000000000000000000000000000000000000000000000000000000000811695636e6be03f95611d919593831694919330939091169183918b91608401612296565b6020604051808303816000875af1158015611db0573d6000803e3d6000fd5b505050506040513d601f19601f82011682018060405250810190611dd491906121d0565b60008181526004602052604090819020805460ff191660011790555190915081907f6529de56040715a55618ee5797cd3bc856b65ded8fee01e2a24c8481de9e2aaf90611e249086815260200190565b60405180910390a292915050565b6000601e611c93611c13565b6001600160a01b038116811461106757600080fd5b600060208284031215611e6557600080fd5b8135611cf081611e3e565b600060208284031215611e8257600080fd5b5035919050565b600080600060408486031215611e9e57600080fd5b83359250602084013567ffffffffffffffff80821115611ebd57600080fd5b818601915086601f830112611ed157600080fd5b813581811115611ee057600080fd5b876020828501011115611ef257600080fd5b6020830194508093505050509250925092565b600080600060608486031215611f1a57600080fd5b505081359360208301359350604090920135919050565b600080600060608486031215611f4657600080fd5b8335611f5181611e3e565b9250602084013591506040840135611f6881611e3e565b809150509250925092565b634e487b7160e01b600052604160045260246000fd5b60006020808385031215611f9c57600080fd5b823567ffffffffffffffff80821115611fb457600080fd5b818501915085601f830112611fc857600080fd5b813581811115611fda57611fda611f73565b8060051b604051601f19603f83011681018181108582111715611fff57611fff611f73565b60405291825284820192508381018501918883111561201d57600080fd5b938501935b8285101561203b57843584529385019392850192612022565b98975050505050505050565b634e487b7160e01b600052601160045260246000fd5b8082018082111561098e5761098e612047565b8181038181111561098e5761098e612047565b808202811582820484141761098e5761098e612047565b634e487b7160e01b600052601260045260246000fd5b6000826120bf576120bf61209a565b500490565b600181815b808511156120ff5781600019048211156120e5576120e5612047565b808516156120f257918102915b93841c93908002906120c9565b509250929050565b6000826121165750600161098e565b816121235750600061098e565b816001811461213957600281146121435761215f565b600191505061098e565b60ff84111561215457612154612047565b50506001821b61098e565b5060208310610133831016604e8410600b8410161715612182575081810a61098e565b61218c83836120c4565b80600019048211156121a0576121a0612047565b029392505050565b6000611cf060ff841683612107565b6000600182016121c9576121c9612047565b5060010190565b6000602082840312156121e257600080fd5b5051919050565b6000602082840312156121fb57600080fd5b8151611cf081611e3e565b60006020828403121561221857600080fd5b81518015158114611cf057600080fd5b634e487b7160e01b600052603260045260246000fd5b60008261224d5761224d61209a565b500690565b6020808252825182820181905260009190848201906040850190845b8181101561228a5783518352928401929184019160010161226e565b50909695505050505050565b6001600160a01b03888116825260208083018990528782166040840152868216606084015290851660808301526001600160e01b0319841660a083015260e060c083018190528351908301819052600091825b8281101561230657858101820151858201610100015281016122e9565b5050610100600081838601015280601f19601f840116850101925050509897505050505050505056fea2646970667358221220bc330280ced16573559373700b264ecf0012bf0e0cb47bf514f7f8227cd0c56064736f6c6343000814003360806040523480156200001157600080fd5b50604051620014a7380380620014a7833981016040819052620000349162000127565b806040518060400160405280600681526020016546616d696c7960d01b8152506040518060400160405280600381526020016246414d60e81b8152508160009081620000819190620001fe565b506001620000908282620001fe565b5050506001600160a01b038116620000c257604051631e4fbdf760e01b81526000600482015260240160405180910390fd5b620000cd81620000d5565b5050620002ca565b600680546001600160a01b038381166001600160a01b0319831681179093556040519116919082907f8be0079c531659141344cd1fd0a4f28419497f9722a3daafe3b4186f6b6457e090600090a35050565b6000602082840312156200013a57600080fd5b81516001600160a01b03811681146200015257600080fd5b9392505050565b634e487b7160e01b600052604160045260246000fd5b600181811c908216806200018457607f821691505b602082108103620001a557634e487b7160e01b600052602260045260246000fd5b50919050565b601f821115620001f957600081815260208120601f850160051c81016020861015620001d45750805b601f850160051c820191505b81811015620001f557828155600101620001e0565b5050505b505050565b81516001600160401b038111156200021a576200021a62000159565b62000232816200022b84546200016f565b84620001ab565b602080601f8311600181146200026a5760008415620002515750858301515b600019600386901b1c1916600185901b178555620001f5565b600085815260208120601f198616915b828110156200029b578886015182559484019460019091019084016200027a565b5085821015620002ba5787850151600019600388901b60f8161c191681555b5050505050600190811b01905550565b6111cd80620002da6000396000f3fe608060405234801561001057600080fd5b50600436106101215760003560e01c8063715018a6116100ad578063b88d4fde11610071578063b88d4fde1461024c578063c87b56dd1461025f578063e985e9c514610272578063f2fde38b14610285578063f84ddf0b1461029857600080fd5b8063715018a614610210578063798ead01146102185780638da5cb5b1461022057806395d89b4114610231578063a22cb4651461023957600080fd5b806323b872dd116100f457806323b872dd146101a357806340d097c3146101b657806342842e0e146101d75780636352211e146101ea57806370a08231146101fd57600080fd5b806301ffc9a71461012657806306fdde031461014e578063081812fc14610163578063095ea7b31461018e575b600080fd5b610139610134366004610ded565b6102a0565b60405190151581526020015b60405180910390f35b6101566102f2565b6040516101459190610e5a565b610176610171366004610e6d565b610384565b6040516001600160a01b039091168152602001610145565b6101a161019c366004610e9d565b6103ad565b005b6101a16101b1366004610ec7565b6103bc565b6101c96101c4366004610f03565b61044c565b604051908152602001610145565b6101a16101e5366004610ec7565b61047b565b6101766101f8366004610e6d565b61049b565b6101c961020b366004610f03565b6104a6565b6101a16104ee565b6101c9610502565b6006546001600160a01b0316610176565b61015661051c565b6101a1610247366004610f1e565b61052b565b6101a161025a366004610f70565b610536565b61015661026d366004610e6d565b61054d565b61013961028036600461104c565b6105c2565b6101a1610293366004610f03565b6105f0565b6101c961062e565b60006001600160e01b031982166380ac58cd60e01b14806102d157506001600160e01b03198216635b5e139f60e01b145b806102ec57506301ffc9a760e01b6001600160e01b03198316145b92915050565b6060600080546103019061107f565b80601f016020809104026020016040519081016040528092919081815260200182805461032d9061107f565b801561037a5780601f1061034f5761010080835404028352916020019161037a565b820191906000526020600020905b81548152906001019060200180831161035d57829003601f168201915b5050505050905090565b600061038f82610680565b506000828152600460205260409020546001600160a01b03166102ec565b6103b88282336106b9565b5050565b6001600160a01b0382166103eb57604051633250574960e11b8152600060048201526024015b60405180910390fd5b60006103f88383336106c6565b9050836001600160a01b0316816001600160a01b031614610446576040516364283d7b60e01b81526001600160a01b03808616600483015260248201849052821660448201526064016103e2565b50505050565b60006104566107bf565b60078054906000610466836110cf565b91905055905061047682826107ec565b919050565b61049683838360405180602001604052806000815250610536565b505050565b60006102ec82610680565b60006001600160a01b0382166104d2576040516322718ad960e21b8152600060048201526024016103e2565b506001600160a01b031660009081526003602052604090205490565b6104f66107bf565b6105006000610806565b565b600061050c61062e565b6105179060016110e8565b905090565b6060600180546103019061107f565b6103b8338383610858565b6105418484846103bc565b610446848484846108f7565b606061055882610680565b50600061057060408051602081019091526000815290565b9050600081511161059057604051806020016040528060008152506105bb565b8061059a84610a20565b6040516020016105ab9291906110fb565b6040516020818303038152906040525b9392505050565b6001600160a01b03918216600090815260056020908152604080832093909416825291909152205460ff1690565b6105f86107bf565b6001600160a01b03811661062257604051631e4fbdf760e01b8152600060048201526024016103e2565b61062b81610806565b50565b600080600754116106715760405162461bcd60e51b815260206004820152600d60248201526c139bc811985b5a5b1e481e595d609a1b60448201526064016103e2565b6001600754610517919061112a565b6000818152600260205260408120546001600160a01b0316806102ec57604051637e27328960e01b8152600481018490526024016103e2565b6104968383836001610ab3565b6000828152600260205260408120546001600160a01b03908116908316156106f3576106f3818486610bb9565b6001600160a01b0381161561073157610710600085600080610ab3565b6001600160a01b038116600090815260036020526040902080546000190190555b6001600160a01b03851615610760576001600160a01b0385166000908152600360205260409020805460010190555b60008481526002602052604080822080546001600160a01b0319166001600160a01b0389811691821790925591518793918516917fddf252ad1be2c89b69c2b068fc378daa952ba7f163c4a11628f55a4df523b3ef91a4949350505050565b6006546001600160a01b031633146105005760405163118cdaa760e01b81523360048201526024016103e2565b6103b8828260405180602001604052806000815250610c1d565b600680546001600160a01b038381166001600160a01b0319831681179093556040519116919082907f8be0079c531659141344cd1fd0a4f28419497f9722a3daafe3b4186f6b6457e090600090a35050565b6001600160a01b03821661088a57604051630b61174360e31b81526001600160a01b03831660048201526024016103e2565b6001600160a01b03838116600081815260056020908152604080832094871680845294825291829020805460ff191686151590811790915591519182527f17307eab39ab6107e8899845ad3d59bd9653f200f220920489ca2b5937696c31910160405180910390a3505050565b6001600160a01b0383163b1561044657604051630a85bd0160e11b81526001600160a01b0384169063150b7a029061093990339088908790879060040161113d565b6020604051808303816000875af1925050508015610974575060408051601f3d908101601f191682019092526109719181019061117a565b60015b6109dd573d8080156109a2576040519150601f19603f3d011682016040523d82523d6000602084013e6109a7565b606091505b5080516000036109d557604051633250574960e11b81526001600160a01b03851660048201526024016103e2565b805181602001fd5b6001600160e01b03198116630a85bd0160e11b14610a1957604051633250574960e11b81526001600160a01b03851660048201526024016103e2565b5050505050565b60606000610a2d83610c34565b600101905060008167ffffffffffffffff811115610a4d57610a4d610f5a565b6040519080825280601f01601f191660200182016040528015610a77576020820181803683370190505b5090508181016020015b600019016f181899199a1a9b1b9c1cb0b131b232b360811b600a86061a8153600a8504945084610a8157509392505050565b8080610ac757506001600160a01b03821615155b15610b89576000610ad784610680565b90506001600160a01b03831615801590610b035750826001600160a01b0316816001600160a01b031614155b8015610b165750610b1481846105c2565b155b15610b3f5760405163a9fbf51f60e01b81526001600160a01b03841660048201526024016103e2565b8115610b875783856001600160a01b0316826001600160a01b03167f8c5be1e5ebec7d5bd14f71427d1e84f3dd0314c0f7b2291e5b200ac8c7c3b92560405160405180910390a45b505b5050600090815260046020526040902080546001600160a01b0319166001600160a01b0392909216919091179055565b610bc4838383610d0c565b610496576001600160a01b038316610bf257604051637e27328960e01b8152600481018290526024016103e2565b60405163177e802f60e01b81526001600160a01b0383166004820152602481018290526044016103e2565b610c278383610d72565b61049660008484846108f7565b60008072184f03e93ff9f4daa797ed6e38ed64bf6a1f0160401b8310610c735772184f03e93ff9f4daa797ed6e38ed64bf6a1f0160401b830492506040015b6d04ee2d6d415b85acef81000000008310610c9f576d04ee2d6d415b85acef8100000000830492506020015b662386f26fc100008310610cbd57662386f26fc10000830492506010015b6305f5e1008310610cd5576305f5e100830492506008015b6127108310610ce957612710830492506004015b60648310610cfb576064830492506002015b600a83106102ec5760010192915050565b60006001600160a01b03831615801590610d6a5750826001600160a01b0316846001600160a01b03161480610d465750610d4684846105c2565b80610d6a57506000828152600460205260409020546001600160a01b038481169116145b949350505050565b6001600160a01b038216610d9c57604051633250574960e11b8152600060048201526024016103e2565b6000610daa838360006106c6565b90506001600160a01b03811615610496576040516339e3563760e11b8152600060048201526024016103e2565b6001600160e01b03198116811461062b57600080fd5b600060208284031215610dff57600080fd5b81356105bb81610dd7565b60005b83811015610e25578181015183820152602001610e0d565b50506000910152565b60008151808452610e46816020860160208601610e0a565b601f01601f19169290920160200192915050565b6020815260006105bb6020830184610e2e565b600060208284031215610e7f57600080fd5b5035919050565b80356001600160a01b038116811461047657600080fd5b60008060408385031215610eb057600080fd5b610eb983610e86565b946020939093013593505050565b600080600060608486031215610edc57600080fd5b610ee584610e86565b9250610ef360208501610e86565b9150604084013590509250925092565b600060208284031215610f1557600080fd5b6105bb82610e86565b60008060408385031215610f3157600080fd5b610f3a83610e86565b915060208301358015158114610f4f57600080fd5b809150509250929050565b634e487b7160e01b600052604160045260246000fd5b60008060008060808587031215610f8657600080fd5b610f8f85610e86565b9350610f9d60208601610e86565b925060408501359150606085013567ffffffffffffffff80821115610fc157600080fd5b818701915087601f830112610fd557600080fd5b813581811115610fe757610fe7610f5a565b604051601f8201601f19908116603f0116810190838211818310171561100f5761100f610f5a565b816040528281528a602084870101111561102857600080fd5b82602086016020830137600060208483010152809550505050505092959194509250565b6000806040838503121561105f57600080fd5b61106883610e86565b915061107660208401610e86565b90509250929050565b600181811c9082168061109357607f821691505b6020821081036110b357634e487b7160e01b600052602260045260246000fd5b50919050565b634e487b7160e01b600052601160045260246000fd5b6000600182016110e1576110e16110b9565b5060010190565b808201808211156102ec576102ec6110b9565b6000835161110d818460208801610e0a565b835190830190611121818360208801610e0a565b01949350505050565b818103818111156102ec576102ec6110b9565b6001600160a01b038581168252841660208201526040810183905260806060820181905260009061117090830184610e2e565b9695505050505050565b60006020828403121561118c57600080fd5b81516105bb81610dd756fea2646970667358221220424a8725a8226dc490f895a4513436ac94d0c497d2931772927356c9f19de7cb64736f6c6343000814003360806040523480156200001157600080fd5b50604051620013e7380380620013e7833981016040819052620000349162000127565b806040518060400160405280600681526020016526b2b6b132b960d11b815250604051806040016040528060038152602001624d454d60e81b8152508160009081620000819190620001fe565b506001620000908282620001fe565b5050506001600160a01b038116620000c257604051631e4fbdf760e01b81526000600482015260240160405180910390fd5b620000cd81620000d5565b5050620002ca565b600680546001600160a01b038381166001600160a01b0319831681179093556040519116919082907f8be0079c531659141344cd1fd0a4f28419497f9722a3daafe3b4186f6b6457e090600090a35050565b6000602082840312156200013a57600080fd5b81516001600160a01b03811681146200015257600080fd5b9392505050565b634e487b7160e01b600052604160045260246000fd5b600181811c908216806200018457607f821691505b602082108103620001a557634e487b7160e01b600052602260045260246000fd5b50919050565b601f821115620001f957600081815260208120601f850160051c81016020861015620001d45750805b601f850160051c820191505b81811015620001f557828155600101620001e0565b5050505b505050565b81516001600160401b038111156200021a576200021a62000159565b62000232816200022b84546200016f565b84620001ab565b602080601f8311600181146200026a5760008415620002515750858301515b600019600386901b1c1916600185901b178555620001f5565b600085815260208120601f198616915b828110156200029b578886015182559484019460019091019084016200027a565b5085821015620002ba5787850151600019600388901b60f8161c191681555b5050505050600190811b01905550565b61110d80620002da6000396000f3fe608060405234801561001057600080fd5b506004361061010b5760003560e01c806370a08231116100a2578063a22cb46511610071578063a22cb4651461021b578063b88d4fde1461022e578063c87b56dd14610241578063e985e9c514610254578063f2fde38b1461026757600080fd5b806370a08231146101e7578063715018a6146101fa5780638da5cb5b1461020257806395d89b411461021357600080fd5b806323b872dd116100de57806323b872dd1461018d57806340d097c3146101a057806342842e0e146101c15780636352211e146101d457600080fd5b806301ffc9a71461011057806306fdde0314610138578063081812fc1461014d578063095ea7b314610178575b600080fd5b61012361011e366004610d5b565b61027a565b60405190151581526020015b60405180910390f35b6101406102cc565b60405161012f9190610dc8565b61016061015b366004610ddb565b61035e565b6040516001600160a01b03909116815260200161012f565b61018b610186366004610e0b565b610387565b005b61018b61019b366004610e35565b610396565b6101b36101ae366004610e71565b610426565b60405190815260200161012f565b61018b6101cf366004610e35565b610455565b6101606101e2366004610ddb565b610475565b6101b36101f5366004610e71565b610480565b61018b6104c8565b6006546001600160a01b0316610160565b6101406104dc565b61018b610229366004610e8c565b6104eb565b61018b61023c366004610ede565b6104f6565b61014061024f366004610ddb565b61050d565b610123610262366004610fba565b610582565b61018b610275366004610e71565b6105b0565b60006001600160e01b031982166380ac58cd60e01b14806102ab57506001600160e01b03198216635b5e139f60e01b145b806102c657506301ffc9a760e01b6001600160e01b03198316145b92915050565b6060600080546102db90610fed565b80601f016020809104026020016040519081016040528092919081815260200182805461030790610fed565b80156103545780601f1061032957610100808354040283529160200191610354565b820191906000526020600020905b81548152906001019060200180831161033757829003601f168201915b5050505050905090565b6000610369826105ee565b506000828152600460205260409020546001600160a01b03166102c6565b610392828233610627565b5050565b6001600160a01b0382166103c557604051633250574960e11b8152600060048201526024015b60405180910390fd5b60006103d2838333610634565b9050836001600160a01b0316816001600160a01b031614610420576040516364283d7b60e01b81526001600160a01b03808616600483015260248201849052821660448201526064016103bc565b50505050565b600061043061072d565b6007805490600061044083611027565b919050559050610450828261075a565b919050565b610470838383604051806020016040528060008152506104f6565b505050565b60006102c6826105ee565b60006001600160a01b0382166104ac576040516322718ad960e21b8152600060048201526024016103bc565b506001600160a01b031660009081526003602052604090205490565b6104d061072d565b6104da6000610774565b565b6060600180546102db90610fed565b6103923383836107c6565b610501848484610396565b61042084848484610865565b6060610518826105ee565b50600061053060408051602081019091526000815290565b90506000815111610550576040518060200160405280600081525061057b565b8061055a8461098e565b60405160200161056b92919061104e565b6040516020818303038152906040525b9392505050565b6001600160a01b03918216600090815260056020908152604080832093909416825291909152205460ff1690565b6105b861072d565b6001600160a01b0381166105e257604051631e4fbdf760e01b8152600060048201526024016103bc565b6105eb81610774565b50565b6000818152600260205260408120546001600160a01b0316806102c657604051637e27328960e01b8152600481018490526024016103bc565b6104708383836001610a21565b6000828152600260205260408120546001600160a01b039081169083161561066157610661818486610b27565b6001600160a01b0381161561069f5761067e600085600080610a21565b6001600160a01b038116600090815260036020526040902080546000190190555b6001600160a01b038516156106ce576001600160a01b0385166000908152600360205260409020805460010190555b60008481526002602052604080822080546001600160a01b0319166001600160a01b0389811691821790925591518793918516917fddf252ad1be2c89b69c2b068fc378daa952ba7f163c4a11628f55a4df523b3ef91a4949350505050565b6006546001600160a01b031633146104da5760405163118cdaa760e01b81523360048201526024016103bc565b610392828260405180602001604052806000815250610b8b565b600680546001600160a01b038381166001600160a01b0319831681179093556040519116919082907f8be0079c531659141344cd1fd0a4f28419497f9722a3daafe3b4186f6b6457e090600090a35050565b6001600160a01b0382166107f857604051630b61174360e31b81526001600160a01b03831660048201526024016103bc565b6001600160a01b03838116600081815260056020908152604080832094871680845294825291829020805460ff191686151590811790915591519182527f17307eab39ab6107e8899845ad3d59bd9653f200f220920489ca2b5937696c31910160405180910390a3505050565b6001600160a01b0383163b1561042057604051630a85bd0160e11b81526001600160a01b0384169063150b7a02906108a790339088908790879060040161107d565b6020604051808303816000875af19250505080156108e2575060408051601f3d908101601f191682019092526108df918101906110ba565b60015b61094b573d808015610910576040519150601f19603f3d011682016040523d82523d6000602084013e610915565b606091505b50805160000361094357604051633250574960e11b81526001600160a01b03851660048201526024016103bc565b805181602001fd5b6001600160e01b03198116630a85bd0160e11b1461098757604051633250574960e11b81526001600160a01b03851660048201526024016103bc565b5050505050565b6060600061099b83610ba2565b600101905060008167ffffffffffffffff8111156109bb576109bb610ec8565b6040519080825280601f01601f1916602001820160405280156109e5576020820181803683370190505b5090508181016020015b600019016f181899199a1a9b1b9c1cb0b131b232b360811b600a86061a8153600a85049450846109ef57509392505050565b8080610a3557506001600160a01b03821615155b15610af7576000610a45846105ee565b90506001600160a01b03831615801590610a715750826001600160a01b0316816001600160a01b031614155b8015610a845750610a828184610582565b155b15610aad5760405163a9fbf51f60e01b81526001600160a01b03841660048201526024016103bc565b8115610af55783856001600160a01b0316826001600160a01b03167f8c5be1e5ebec7d5bd14f71427d1e84f3dd0314c0f7b2291e5b200ac8c7c3b92560405160405180910390a45b505b5050600090815260046020526040902080546001600160a01b0319166001600160a01b0392909216919091179055565b610b32838383610c7a565b610470576001600160a01b038316610b6057604051637e27328960e01b8152600481018290526024016103bc565b60405163177e802f60e01b81526001600160a01b0383166004820152602481018290526044016103bc565b610b958383610ce0565b6104706000848484610865565b60008072184f03e93ff9f4daa797ed6e38ed64bf6a1f0160401b8310610be15772184f03e93ff9f4daa797ed6e38ed64bf6a1f0160401b830492506040015b6d04ee2d6d415b85acef81000000008310610c0d576d04ee2d6d415b85acef8100000000830492506020015b662386f26fc100008310610c2b57662386f26fc10000830492506010015b6305f5e1008310610c43576305f5e100830492506008015b6127108310610c5757612710830492506004015b60648310610c69576064830492506002015b600a83106102c65760010192915050565b60006001600160a01b03831615801590610cd85750826001600160a01b0316846001600160a01b03161480610cb45750610cb48484610582565b80610cd857506000828152600460205260409020546001600160a01b038481169116145b949350505050565b6001600160a01b038216610d0a57604051633250574960e11b8152600060048201526024016103bc565b6000610d1883836000610634565b90506001600160a01b03811615610470576040516339e3563760e11b8152600060048201526024016103bc565b6001600160e01b0319811681146105eb57600080fd5b600060208284031215610d6d57600080fd5b813561057b81610d45565b60005b83811015610d93578181015183820152602001610d7b565b50506000910152565b60008151808452610db4816020860160208601610d78565b601f01601f19169290920160200192915050565b60208152600061057b6020830184610d9c565b600060208284031215610ded57600080fd5b5035919050565b80356001600160a01b038116811461045057600080fd5b60008060408385031215610e1e57600080fd5b610e2783610df4565b946020939093013593505050565b600080600060608486031215610e4a57600080fd5b610e5384610df4565b9250610e6160208501610df4565b9150604084013590509250925092565b600060208284031215610e8357600080fd5b61057b82610df4565b60008060408385031215610e9f57600080fd5b610ea883610df4565b915060208301358015158114610ebd57600080fd5b809150509250929050565b634e487b7160e01b600052604160045260246000fd5b60008060008060808587031215610ef457600080fd5b610efd85610df4565b9350610f0b60208601610df4565b925060408501359150606085013567ffffffffffffffff80821115610f2f57600080fd5b818701915087601f830112610f4357600080fd5b813581811115610f5557610f55610ec8565b604051601f8201601f19908116603f01168101908382118183101715610f7d57610f7d610ec8565b816040528281528a6020848701011115610f9657600080fd5b82602086016020830137600060208483010152809550505050505092959194509250565b60008060408385031215610fcd57600080fd5b610fd683610df4565b9150610fe460208401610df4565b90509250929050565b600181811c9082168061100157607f821691505b60208210810361102157634e487b7160e01b600052602260045260246000fd5b50919050565b60006001820161104757634e487b7160e01b600052601160045260246000fd5b5060010190565b60008351611060818460208801610d78565b835190830190611074818360208801610d78565b01949350505050565b6001600160a01b03858116825284166020820152604081018390526080606082018190526000906110b090830184610d9c565b9695505050505050565b6000602082840312156110cc57600080fd5b815161057b81610d4556fea264697066735822122057d84a3f12c5406a59d13d39f9affa9b4ddcdadc22f770fab6dcf84f18408c6d64736f6c63430008140033",
  "devdoc": {
    "errors": {
      "OwnableInvalidOwner(address)": [
        {
          "details": "The owner is not a valid owner account. (eg. `address(0)`)"
        }
      ],
      "OwnableUnauthorizedAccount(address)": [
        {
          "details": "The caller account is not authorized to perform an operation."
        }
      ]
    },
    "kind": "dev",
    "methods": {
      "completeComputeWin(bytes32,bytes)": {
        "params": {
          "data": "ABI-encoded response",
          "requestId": "Request ID"
        }
      },
      "owner()": {
        "details": "Returns the address of the current owner."
      },
      "renounceOwnership()": {
        "details": "Leaves the contract without owner. It will not be possible to call `onlyOwner` functions. Can only be called by the current owner. NOTE: Renouncing ownership will leave the contract without an owner, thereby disabling any functionality that is only available to the owner."
      },
      "setRequestParameters(address,bytes32,address)": {
        "details": "No access control is implemented here for convenience. This is not secure because it allows the contract to be pointed to an arbitrary Airnode. Normally, this function should only be callable by the \"owner\" or not exist in the first place.",
        "params": {
          "_airnode": "Airnode address",
          "_endpointIdUint256Array": "Endpoint ID used to request a `uint256[]`",
          "_sponsorWallet": "Sponsor wallet address"
        }
      },
      "transferOwnership(address)": {
        "details": "Transfers ownership of the contract to a new account (`newOwner`). Can only be called by the current owner."
      }
    },
    "version": 1
  },
  "userdoc": {
    "kind": "user",
    "methods": {
      "completeComputeWin(bytes32,bytes)": {
        "notice": "Called by the Airnode through the AirnodeRrp contract to fulfill the request"
      },
      "setRequestParameters(address,bytes32,address)": {
        "notice": "Sets parameters used in requesting QRNG services"
      }
    },
    "version": 1
  },
  "storageLayout": {
    "storage": [
      {
        "astId": 380,
        "contract": "contracts/Beaters.sol:Beaters",
        "label": "_owner",
        "offset": 0,
        "slot": "0",
        "type": "t_address"
      },
      {
        "astId": 6926,
        "contract": "contracts/Beaters.sol:Beaters",
        "label": "airnode",
        "offset": 0,
        "slot": "1",
        "type": "t_address"
      },
      {
        "astId": 6928,
        "contract": "contracts/Beaters.sol:Beaters",
        "label": "endpointIdUint256Array",
        "offset": 0,
        "slot": "2",
        "type": "t_bytes32"
      },
      {
        "astId": 6930,
        "contract": "contracts/Beaters.sol:Beaters",
        "label": "sponsorWallet",
        "offset": 0,
        "slot": "3",
        "type": "t_address"
      },
      {
        "astId": 6934,
        "contract": "contracts/Beaters.sol:Beaters",
        "label": "expectingRequestWithIdToBeFulfilled",
        "offset": 0,
        "slot": "4",
        "type": "t_mapping(t_bytes32,t_bool)"
      },
      {
        "astId": 5312,
        "contract": "contracts/Beaters.sol:Beaters",
        "label": "_totalUsers",
        "offset": 0,
        "slot": "5",
        "type": "t_uint256"
      },
      {
        "astId": 5314,
        "contract": "contracts/Beaters.sol:Beaters",
        "label": "_genesis",
        "offset": 0,
        "slot": "6",
        "type": "t_uint256"
      },
      {
        "astId": 5317,
        "contract": "contracts/Beaters.sol:Beaters",
        "label": "_lastComputeEpoch",
        "offset": 0,
        "slot": "7",
        "type": "t_uint256"
      },
      {
        "astId": 5321,
        "contract": "contracts/Beaters.sol:Beaters",
        "label": "_usersId",
        "offset": 0,
        "slot": "8",
        "type": "t_mapping(t_address,t_uint256)"
      },
      {
        "astId": 5325,
        "contract": "contracts/Beaters.sol:Beaters",
        "label": "_userIds",
        "offset": 0,
        "slot": "9",
        "type": "t_mapping(t_uint256,t_address)"
      },
      {
        "astId": 5329,
        "contract": "contracts/Beaters.sol:Beaters",
        "label": "_referredBy",
        "offset": 0,
        "slot": "10",
        "type": "t_mapping(t_uint256,t_uint256)"
      },
      {
        "astId": 5334,
        "contract": "contracts/Beaters.sol:Beaters",
        "label": "minStake",
        "offset": 0,
        "slot": "11",
        "type": "t_uint256"
      },
      {
        "astId": 5339,
        "contract": "contracts/Beaters.sol:Beaters",
        "label": "_memberProps",
        "offset": 0,
        "slot": "12",
        "type": "t_mapping(t_uint256,t_struct(MemberProps)5292_storage)"
      },
      {
        "astId": 5344,
        "contract": "contracts/Beaters.sol:Beaters",
        "label": "_familyProps",
        "offset": 0,
        "slot": "13",
        "type": "t_mapping(t_uint256,t_struct(FamilyProps)5303_storage)"
      },
      {
        "astId": 5348,
        "contract": "contracts/Beaters.sol:Beaters",
        "label": "_totalMintForRequestId",
        "offset": 0,
        "slot": "14",
        "type": "t_mapping(t_bytes32,t_uint256)"
      },
      {
        "astId": 5351,
        "contract": "contracts/Beaters.sol:Beaters",
        "label": "_totalStake",
        "offset": 0,
        "slot": "15",
        "type": "t_uint256"
      },
      {
        "astId": 5354,
        "contract": "contracts/Beaters.sol:Beaters",
        "label": "_pendingTotalStake",
        "offset": 0,
        "slot": "16",
        "type": "t_uint256"
      },
      {
        "astId": 5357,
        "contract": "contracts/Beaters.sol:Beaters",
        "label": "_totalMint",
        "offset": 0,
        "slot": "17",
        "type": "t_uint256"
      },
      {
        "astId": 5360,
        "contract": "contracts/Beaters.sol:Beaters",
        "label": "_totalMintForHouse",
        "offset": 0,
        "slot": "18",
        "type": "t_uint256"
      },
      {
        "astId": 5362,
        "contract": "contracts/Beaters.sol:Beaters",
        "label": "epochLength",
        "offset": 0,
        "slot": "19",
        "type": "t_uint256"
      },
      {
        "astId": 5364,
        "contract": "contracts/Beaters.sol:Beaters",
        "label": "fam_addr",
        "offset": 0,
        "slot": "20",
        "type": "t_address"
      },
      {
        "astId": 5366,
        "contract": "contracts/Beaters.sol:Beaters",
        "label": "mem_addr",
        "offset": 0,
        "slot": "21",
        "type": "t_address"
      },
      {
        "astId": 5368,
        "contract": "contracts/Beaters.sol:Beaters",
        "label": "beat_addr",
        "offset": 0,
        "slot": "22",
        "type": "t_address"
      }
    ],
    "types": {
      "t_address": {
        "encoding": "inplace",
        "label": "address",
        "numberOfBytes": "20"
      },
      "t_bool": {
        "encoding": "inplace",
        "label": "bool",
        "numberOfBytes": "1"
      },
      "t_bytes32": {
        "encoding": "inplace",
        "label": "bytes32",
        "numberOfBytes": "32"
      },
      "t_mapping(t_address,t_uint256)": {
        "encoding": "mapping",
        "key": "t_address",
        "label": "mapping(address => uint256)",
        "numberOfBytes": "32",
        "value": "t_uint256"
      },
      "t_mapping(t_bytes32,t_bool)": {
        "encoding": "mapping",
        "key": "t_bytes32",
        "label": "mapping(bytes32 => bool)",
        "numberOfBytes": "32",
        "value": "t_bool"
      },
      "t_mapping(t_bytes32,t_uint256)": {
        "encoding": "mapping",
        "key": "t_bytes32",
        "label": "mapping(bytes32 => uint256)",
        "numberOfBytes": "32",
        "value": "t_uint256"
      },
      "t_mapping(t_uint256,t_address)": {
        "encoding": "mapping",
        "key": "t_uint256",
        "label": "mapping(uint256 => address)",
        "numberOfBytes": "32",
        "value": "t_address"
      },
      "t_mapping(t_uint256,t_struct(FamilyProps)5303_storage)": {
        "encoding": "mapping",
        "key": "t_uint256",
        "label": "mapping(uint256 => struct Beaters.FamilyProps)",
        "numberOfBytes": "32",
        "value": "t_struct(FamilyProps)5303_storage"
      },
      "t_mapping(t_uint256,t_struct(MemberProps)5292_storage)": {
        "encoding": "mapping",
        "key": "t_uint256",
        "label": "mapping(uint256 => struct Beaters.MemberProps)",
        "numberOfBytes": "32",
        "value": "t_struct(MemberProps)5292_storage"
      },
      "t_mapping(t_uint256,t_uint256)": {
        "encoding": "mapping",
        "key": "t_uint256",
        "label": "mapping(uint256 => uint256)",
        "numberOfBytes": "32",
        "value": "t_uint256"
      },
      "t_struct(FamilyProps)5303_storage": {
        "encoding": "inplace",
        "label": "struct Beaters.FamilyProps",
        "members": [
          {
            "astId": 5294,
            "contract": "contracts/Beaters.sol:Beaters",
            "label": "id",
            "offset": 0,
            "slot": "0",
            "type": "t_uint256"
          },
          {
            "astId": 5296,
            "contract": "contracts/Beaters.sol:Beaters",
            "label": "totalStakeWeight",
            "offset": 0,
            "slot": "1",
            "type": "t_uint256"
          },
          {
            "astId": 5298,
            "contract": "contracts/Beaters.sol:Beaters",
            "label": "ownerShare",
            "offset": 0,
            "slot": "2",
            "type": "t_uint256"
          },
          {
            "astId": 5300,
            "contract": "contracts/Beaters.sol:Beaters",
            "label": "membersShare",
            "offset": 0,
            "slot": "3",
            "type": "t_uint256"
          },
          {
            "astId": 5302,
            "contract": "contracts/Beaters.sol:Beaters",
            "label": "rps",
            "offset": 0,
            "slot": "4",
            "type": "t_uint256"
          }
        ],
        "numberOfBytes": "160"
      },
      "t_struct(MemberProps)5292_storage": {
        "encoding": "inplace",
        "label": "struct Beaters.MemberProps",
        "members": [
          {
            "astId": 5281,
            "contract": "contracts/Beaters.sol:Beaters",
            "label": "totalStake",
            "offset": 0,
            "slot": "0",
            "type": "t_uint256"
          },
          {
            "astId": 5283,
            "contract": "contracts/Beaters.sol:Beaters",
            "label": "activePeriods",
            "offset": 0,
            "slot": "1",
            "type": "t_uint256"
          },
          {
            "astId": 5285,
            "contract": "contracts/Beaters.sol:Beaters",
            "label": "lastActivePeriod",
            "offset": 0,
            "slot": "2",
            "type": "t_uint256"
          },
          {
            "astId": 5287,
            "contract": "contracts/Beaters.sol:Beaters",
            "label": "stakeWeight",
            "offset": 0,
            "slot": "3",
            "type": "t_uint256"
          },
          {
            "astId": 5289,
            "contract": "contracts/Beaters.sol:Beaters",
            "label": "famId",
            "offset": 0,
            "slot": "4",
            "type": "t_uint256"
          },
          {
            "astId": 5291,
            "contract": "contracts/Beaters.sol:Beaters",
            "label": "rps",
            "offset": 0,
            "slot": "5",
            "type": "t_uint256"
          }
        ],
        "numberOfBytes": "192"
      },
      "t_uint256": {
        "encoding": "inplace",
        "label": "uint256",
        "numberOfBytes": "32"
      }
    }
  }
}